:100000000C945D000C9485000C9485000C94850084
:100010000C9485000C9485000C9485000C9485004C
:100020000C9485000C9485000C9485000C9485003C
:100030000C9485000C9485000C9485000C9485002C
:100040000C943D020C9485000C9485000C94850062
:100050000C9485000C9485000C9485000C9485000C
:100060000C9485000C94850000000008000201003B
:100070000003040700000000000000000102040863
:100080001020408001020408102001020408102002
:10009000040404040404040402020202020203032E
:1000A0000303030300000000250028002B000000CC
:1000B0000000240027002A00AB0011241FBECFEF50
:1000C000D8E0DEBFCDBF11E0A0E0B1E0EAE7F7E0A5
:1000D00002C005900D92A432B107D9F721E0A4E245
:1000E000B1E001C01D92A534B207E1F710E0CAEB00
:1000F000D0E004C02297FE010E94B703C83BD1079D
:10010000C9F70E94A6030C94BB030C94000020E0E6
:1001100042E060E184E291E00E94780184E291E0B3
:100120000E94570140E060E084E291E00E945E019D
:1001300060E071E084E291E00E94A30341E061E0AD
:1001400084E291E00E945E016EE071E084E291E061
:100150000C94A3030895AF92CF92EF920F9382E095
:10016000A82E93E0C92E24E0E22E05E02AE04BE021
:100170006CE084E291E00E9416020F91EF90CF9024
:10018000AF900895CF93DF93EC0160E08E810E94E1
:100190002F0381E090E00E94870261E08E810E943F
:1001A0002F0381E090E00E94870260E08E810E9430
:1001B0002F0384E690E0DF91CF910C948702EF92B9
:1001C000FF920F931F93CF93DF938C01C0E0D0E099
:1001D000E62EF12CB7010C2E02C0759567950A9496
:1001E000E2F76170F801EC0FFD1F87810E942F0379
:1001F0002196C430D10571F7C801DF91CF911F91CD
:100200000F91FF90EF900C94C200EF92FF920F932A
:100210001F93CF93DF938C01C0E0D0E0E62EF12C4A
:10022000B7010C2E02C0759567950A94E2F76170CC
:10023000F801EC0FFD1F87810E942F032196C83023
:10024000D10571F7C801DF91CF911F910F91FF90F8
:10025000EF900C94C2001F93CF93DF93EC01162F05
:10026000642F8C810E942F038D818F3F19F060E0F5
:100270000E942F038F85612F84FF06C0CE01DF917E
:10028000CF911F910C94050170E084E075956795FE
:100290008A95E1F7CE010E94DF00612FCE01DF9148
:1002A000CF911F910C94DF0040E00C942B0161E092
:1002B0000E94540180ED97E00C948702443008F0CE
:1002C00043E0FC012389421710F04FEF420FFC017D
:1002D000E40FF11D2489260F2068622F0C9454012D
:1002E000FC016089262F2460208B6C600C945401E3
:1002F0000F931F93CF93DF93EC01423018F08F855B
:1003000088608F874B8B1C8A80E48D8B6E8B70E0AE
:10031000605C7F4F6F8B222329F0413019F48F8569
:1003200084608F8761E08C810E94F6028D818F3F0F
:1003300019F061E00E94F60261E08E810E94F602EF
:1003400000E010E08F8584FF03C088E090E002C0E9
:1003500084E090E00817190754F4FE01E00FF11F44
:1003600061E087810E94F6020F5F1F4FEBCF80E5AF
:1003700093EC0E94870260E08C810E942F0360E072
:100380008E810E942F038D818F3F19F060E00E94C3
:100390002F036F8564FD1DC063E0CE010E94DF0066
:1003A00084E991E10E94870263E0CE010E94DF00B0
:1003B00084E991E10E94870263E0CE010E94DF00A0
:1003C00086E990E00E94870262E0CE010E94DF0091
:1003D00016C06062CE010E94540184E991E10E943E
:1003E00087026F856062CE010E94540186E990E029
:1003F0000E9487026F856062CE010E9454016F8562
:100400006062CE010E94540184E0888BCE010E947C
:100410007001CE010E94570182E0898B66E0CE0117
:10042000DF91CF911F910F910C945401AF92CF9215
:10043000EF920F93FC01138212828FE191E091837E
:1004400080836483458326830783E086C186A286F2
:100450001386148615861686178620E041E060E133
:10046000CF010F91EF90CF90AF900C94780141E0C5
:100470000E942B0181E090E008951F920F920FB629
:100480000F9211242F933F938F939F93AF93BF931A
:1004900080913D0190913E01A0913F01B0914001BA
:1004A00030913C0123E0230F2D3720F40196A11D4C
:1004B000B11D05C026E8230F0296A11DB11D209392
:1004C0003C0180933D0190933E01A0933F01B09386
:1004D00040018091410190914201A0914301B0916E
:1004E00044010196A11DB11D8093410190934201E9
:1004F000A0934301B0934401BF91AF919F918F911D
:100500003F912F910F900FBE0F901F901895823042
:10051000910538F0880F991F880F991F059701974B
:10052000F1F70895789484B5826084BD84B58160C4
:1005300084BD85B5826085BD85B5816085BDEEE6EB
:10054000F0E0808181608083E1E8F0E010828081CA
:1005500082608083808181608083E0E8F0E0808138
:1005600081608083E1EBF0E0808184608083E0EB58
:10057000F0E0808181608083EAE7F0E08081846040
:10058000808380818260808380818160808380819C
:10059000806880831092C1000895833081F028F430
:1005A000813099F08230A1F008958730A9F0883029
:1005B000B9F08430D1F4809180008F7D03C08091A8
:1005C00080008F7780938000089584B58F7702C074
:1005D00084B58F7D84BD08958091B0008F7703C06E
:1005E0008091B0008F7D8093B0000895CF93DF930A
:1005F00090E0FC01E458FF4F2491FC01E057FF4FCD
:100600008491882349F190E0880F991FFC01E255FD
:10061000FF4FA591B4918C559F4FFC01C591D4918A
:100620009FB7611108C0F8948C91209582238C9318
:10063000888182230AC0623051F4F8948C91322F61
:10064000309583238C938881822B888304C0F8940F
:100650008C91822B8C939FBFDF91CF9108950F9344
:100660001F93CF93DF931F92CDB7DEB7282F30E0D3
:10067000F901E859FF4F8491F901E458FF4F1491B3
:10068000F901E057FF4F04910023C9F0882321F0BE
:1006900069830E94CD026981E02FF0E0EE0FFF1F19
:1006A000EC55FF4FA591B4919FB7F8948C916111CF
:1006B00003C01095812301C0812B8C939FBF0F90A5
:1006C000DF91CF911F910F910895CF92DF92EF921A
:1006D000FF920F931F93CF93DF937C016A01EB018D
:1006E00000E010E00C151D0571F06991D701ED9146
:1006F000FC910190F081E02DC7010995892B19F03B
:100700000F5F1F4FEFCFC801DF91CF911F910F9166
:10071000FF90EF90DF90CF9008956115710581F003
:10072000DB010D900020E9F7AD0141505109461B56
:10073000570BDC01ED91FC910280F381E02D0994CF
:1007400080E090E008950C948D0308950E94920239
:100750000E94A5030E948700C0E0D0E00E94AA008A
:100760002097E1F30E940000F9CFEE0FFF1F0590E4
:0A077000F491E02D0994F894FFCFF6
:10077A0068656C6C6F2C20776F726C642100492756
:10078A006D2061726475696E6F2E0000000000377B
:04079A0002650300F1
:00000001FF
